:040216007F3C7E00AB
:04021A008E0F8F10A4
:0E021E00E4FFFE0FBF00010EEF64644E70F5AA
:01022C0022AF
:1001B600EE3395E0FDFCF8F9AA06C374809FF50EB0
:1001C60074519AF50D740199F50CE498F50BAE0D82
:0501D600AF0E02021A49
:0401FD008E0B8F0CCA
:100201007D3C7C00E4F5B07F3CFE12021A75B0FF24
:040211007E007F3CB0
:0102150022C6
:04011600AD07AC067F
:10011A00E4FBFAFC7D02120003ED4C60057E007FD1
:10012A0000227A007B3C75B00112021675B0FF7E80
:03013A00007F3C07
:01013D00229F
:04013E00AD07AC0657
:10014200E4FBFAFC7D03120003ED4C60057E007FA8
:1001520000227A007B3C75B00212021675B0FF7E57
:03016200007F3CDF
:010165002277
:04016600AD07AC062F
:10016A00E4FBFAFC7D07120003ED4C60057E007F7C
:10017A0000227A007B3C75B00312021675B0FF7E2E
:03018A00007F3CB7
:01018D00224F
:1001DB007C007D0F120003ED4C60057E007F00223A
:1001EB007D3C7C0075B00412021675B0FF7E007F5B
:0101FB003CC7
:0101FC0022E0
:04018E00AD07AC0607
:10019200E4FBFAFC7D1E120003ED4C60057E007F3D
:1001A20000227A007B3C75B00512021675B0FF7E04
:0301B200007F3C8F
:0101B5002227
:10008E00750801E4F509F50A75B0FFAF0AAE09125D
:10009E0001B6E4F509F50AAF08FE1201FDEF250AD7
:1000AE00F50AEE3509F509AF087E00120116EF25A7
:1000BE000AF50AEE3509F509AF087E0012013EEF8A
:1000CE00250AF50AEE3509F509AF087E001201661C
:1000DE00EF250AF50AEE3509F509AF087E00120183
:1000EE00DBEF250AF50AEE3509F509AF087E001299
:1000FE00018EEF250AF50AEE3509F5090508E50822
:08010E00B4D388E4F5088083F6
:0300000002022DCC
:0C022D00787FE4F6D8FD75811002008E89
:10000300C2D5EC30E709B2D5E4C39DFDE49CFCEE18
:1000130030E715B2D5E4C39FFFE49EFE120039C357
:10002300E49DFDE49CFC800312003930D507C3E452
:060033009FFFE49EFE2287
:10003900BC000BBE0029EF8DF084FFADF022E4CCAB
:10004900F875F008EF2FFFEE33FEEC33FCEE9DEC74
:10005900984005FCEE9DFE0FD5F0E9E4CEFD22EDBA
:10006900F8F5F0EE8420D21CFEADF075F008EF2F04
:10007900FFED33FD4007985006D5F0F222C398FDF5
:050089000FD5F0EA2292
:00000001FF
